:020000040800F2
:1000000000000220310A00082D0A0008C974000807
:100010002D0A00082D0A00082D0A00080000000023
:100020000000000000000000000000002D0A000891
:100030002D0A0008000000002D0A00084D74000879
:100040002D0A00082D0A00082D0A00082D0A0008B4
:100050002D0A00082D0A00082D0A00082D0A0008A4
:100060002D0A00082D0A00082D0A0008F161000879
:10007000FD6100084D4E0008096200081562000885
:10008000F97100081D5700082D0A00082D0A000804
:100090002D0A00082D0A00082D0A00082D0A000864
:1000A0002D0A00082D0A00082D0A00082D0A000854
:1000B0002D0A00082D0A00082D0A000851570008D3
:1000C0002D0A00085D5700082D0A000809250108BF
:1000D0002D0A0008E96B0008916C00083D6D0008CE
:1000E0002D0A00082D0A0008000000002D0A000853
:1000F0002D0A00082D0A00082D0A00082D0A000804
:100100002D0A0008656600082D0A00082D0A00085F
:10011000E96D0008956E0008195100082D0A0008C5
:10012000015100080D510008152501084925010855
:100130002D0A00082D0A00082D0A00082D0A0008C3
:1001400000000000000000000000000000000000AF
:100150002D0A00082D0A00082D0A0008416F00082A
:10016000695700082D0A00085D74000881740008B2
:100170002D0A0008A57400082D0A00082D0A0008A1
:100180002D0A00082D0A0008ED6F0008997000087C
:100190002D0A00082D0A00082D0A00082D0A000863
:1001A0002D0A00082D0A00082D0A00082D0A000853
:1001B000115F00082D0A00082D0A00082D0A00080A
:1001C0002D0A00082D0A00082D0A00082D0A000833
:1001D0002D0A00082D0A00082D0A00082D0A000823
:1001E0002D0A00082D0A00082D0A00082D0A000813
:1001F0002D0A00082D0A00082D0A00082D0A000803
:100200002D0A00082D0A00082D0A00082D0A0008F2
:100210002D0A00082D0A00082D0A00082D0A0008E2
:100220002D0A00082D0A00082D0A00080000000011
:100230002D0A00082D0A0008000000002D0A000801
:100240002D0A00082D0A00082D0A00082D0A0008B2
:100250002D0A00082D0A00082D0A00082D0A0008A2
:100260002D0A00082D0A00082D0A00082D0A000892
:100270002D0A00082D0A0008457100080000000042
:100280002D0A00082D0A00082D0A000800000000B1
:08029000000000002D0A000827
:1002A00010B5054C237833B9044B13B10448AFF3B0
:1002B00000800123237010BD5804002400000000BA
:1002C000487C010808B5034B1BB103490348AFF351
:1002D000008008BD000000005C040024487C010888
:1002E00010F8012B11F8013B012A28BF9A42F7D0E0
:1002F000D01A7047034613F8012B002AFBD1181AB5
:1003000001387047000000000000000000000000FD
:1003100001F0FF01102A2BDB10F0070F08D010F8B6
:10032000013B013A8B422DD010F0070F42B3F6D1BA
:10033000F0B441EA012141EA014122F007047FF0D3
:1003400000070023F0E80256083C85EA010586EA2A
:10035000010685FA47F5A3FA87F586FA47F6A5FA66
:1003600087F68EB9EED1F0BC01F0FF0102F0070272
:1003700032B110F8013B013A83EA010313B1F8D11D
:100380000020704701387047002D06BF35460338FE
:10039000073815F0010F07D1013015F4807F02BF37
:1003A000013015F4C03F0130F0BC0138704700BF88
:1003B00081F0004102E000BF83F0004330B54FEA16
:1003C00041044FEA430594EA050F08BF90EA020F83
:1003D0001FBF54EA000C55EA020C7FEA645C7FEA16
:1003E000655C00F0E2804FEA5454D4EB5555B8BF39
:1003F0006D420CDD2C4480EA020281EA030382EAAA
:10040000000083EA010180EA020281EA0303362D3B
:1004100088BF30BD11F0004F4FEA01314FF4801C0E
:100420004CEA113102D0404261EB410113F0004F20
:100430004FEA03334CEA133302D0524263EB4303D7
:1004400094EA050F00F0A780A4F10104D5F1200E75
:100450000DDB02FA0EFC22FA05F2801841F10001D0
:1004600003FA0EF2801843FA05F359410EE0A5F1A4
:1004700020050EF1200E012A03FA0EFC28BF4CF0D5
:10048000020C43FA05F3C01851EBE37101F000458B
:1004900007D54FF0000EDCF1000C7EEB00006EEB98
:1004A0000101B1F5801F1BD3B1F5001F0CD3490822
:1004B0005FEA30004FEA3C0C04F101044FEA445279
:1004C00012F5800F80F09A80BCF1004F08BF5FEA00
:1004D000500C50F1000041EB045141EA050130BDE0
:1004E0005FEA4C0C404141EB0101013C28BFB1F5F2
:1004F000801FE9D291F0000F04BF01460020B1FA3D
:1005000081F308BF2033A3F10B03B3F120020CDA0F
:100510000C3208DD02F1140CC2F10C0201FA0CF0ED
:1005200021FA02F10CE002F11402D8BFC2F1200C52
:1005300001FA02F120FA0CFCDCBF41EA0C01904008
:10054000E41AA2BF01EB0451294330BD6FEA040451
:100550001F3C1CDA0C340EDC04F11404C4F120023C
:1005600020FA04F001FA02F340EA030021FA04F34E
:1005700045EA030130BDC4F10C04C4F1200220FAA5
:1005800002F001FA04F340EA0300294630BD21FAE3
:1005900004F0294630BD94F0000F83F4801306BFA9
:1005A00081F480110134013D4EE77FEA645C18BF9D
:1005B0007FEA655C29D094EA050F08BF90EA020F34
:1005C00005D054EA000C04BF1946104630BD91EA2C
:1005D000030F1EBF0021002030BD5FEA545C05D12F
:1005E0004000494128BF41F0004130BD14F580046E
:1005F0003CBF01F5801130BD01F0004545F0FE41E2
:1006000041F470014FF0000030BD7FEA645C1ABF16
:10061000194610467FEA655C1CBF0B46024650EA4D
:10062000013406BF52EA033591EA030F41F4002179
:1006300030BD00BF90F0000F04BF0021704730B5FF
:100640004FF4806404F132044FF000054FF00001D4
:1006500050E700BF90F0000F04BF0021704730B595
:100660004FF4806404F1320410F0004548BF40426A
:100670004FF000013EE700BF42004FEAE2014FEABF
:1006800031014FEA02701FBF12F07F4393F07F4F9A
:1006900081F06051704732F07F4208BF704793F09D
:1006A0007F4F04BF41F40021704730B54FF46074B0
:1006B00001F0004521F000411CE700BF50EA0102B3
:1006C00008BF704730B54FF000050AE050EA01025C
:1006D00008BF704730B511F0004502D5404261EBCC
:1006E00041014FF4806404F132045FEA915C3FF40D
:1006F000D8AE4FF003025FEADC0C18BF03325FEAAA
:10070000DC0C18BF033202EBDC02C2F1200300FA5A
:1007100003FC20FA02F001FA03FE40EA0E0021FA7F
:1007200002F11444BDE600BF53B94AB9002908BF1D
:1007300000281CBF4FF0FF314FF0FF3000F074B9BC
:10074000ADF1080C6DE904CE00F006F8DDF804E028
:10075000DDE9022304B070472DE9F047089D044607
:100760008E46002B4DD18A42944669D9B2FA82F264
:1007700052B101FA02F3C2F1200120FA01F10CFAA0
:1007800002FC41EA030E94404FEA1C48210CBEFBD8
:10079000F8F61FFA8CF708FB16E341EA034306FB61
:1007A00007F199420AD91CEB030306F1FF3080F0F0
:1007B0001F81994240F21C81023E63445B1AA4B23D
:1007C000B3FBF8F008FB103344EA034400FB07F7DF
:1007D000A7420AD91CEB040400F1FF3380F00A8120
:1007E000A74240F207816444023840EA0640E41B15
:1007F00000261DB1D4400023C5E900433146BDE8C1
:10080000F0878B4209D9002D00F0EF800026C5E962
:10081000000130463146BDE8F087B3FA83F6002E7A
:100820004AD18B4202D3824200F2F980841A61EBF2
:10083000030301209E46002DE0D0C5E9004EDDE710
:1008400002B9FFDEB2FA82F2002A40F09280A1EBF8
:100850000C014FEA1C471FFA8CFE0126200CB1FB4D
:10086000F7F307FB131140EA01410EFB03F0884246
:1008700008D91CEB010103F1FF3802D2884200F2D3
:10088000CB804346091AA4B2B1FBF7F007FB101165
:1008900044EA01440EFB00FEA64508D91CEB040403
:1008A00000F1FF3102D2A64500F2BB800846A4EB5E
:1008B0000E0440EA03409CE7C6F12007B34022FA49
:1008C00007FC4CEA030C20FA07F401FA06F31C4378
:1008D000F9404FEA1C4900FA06F3B1FBF9F8200C85
:1008E0001FFA8CFE09FB181140EA014108FB0EF0CB
:1008F000884202FA06F20BD91CEB010108F1FF3A1B
:1009000080F08880884240F28580A8F10208614426
:10091000091AA4B2B1FBF9F009FB101144EA014134
:1009200000FB0EFE8E4508D91CEB010100F1FF34DF
:100930006CD28E456AD90238614440EA0840A0FB77
:100940000294A1EB0E01A142C846A64656D353D04D
:100950005DB1B3EB080261EB0E0101FA07F722FA71
:1009600006F3F1401F43C5E9007100263146BDE89A
:10097000F087C2F12003D8400CFA02FC21FA03F3FD
:10098000914001434FEA1C471FFA8CFEB3FBF7F07E
:1009900007FB10360B0C43EA064300FB0EF69E42A3
:1009A00004FA02F408D91CEB030300F1FF382FD23C
:1009B0009E422DD9023863449B1B89B2B3FBF7F6E4
:1009C00007FB163341EA034106FB0EF38B4208D9BD
:1009D0001CEB010106F1FF3816D28B4214D9023EFE
:1009E0006144C91A46EA004638E72E46284605E71C
:1009F0000646E3E61846F8E64B45A9D2B9EB0208ED
:100A000064EB0C0E0138A3E74646EAE7204694E77C
:100A10004046D1E7D0467BE7023B614432E73046AF
:100A200009E76444023842E7704700BFFEE700BFB1
:100A30000B480C4A904203D0121A0B4913F036FAB5
:100A40000A480B4A904203D0121A002113F03CFAD4
:100A500006F05CFF13F0F6F902F0A6F8FEE700BF1F
:100A60000000002454040024747C0108580400246D
:100A700040CB002402F016BD183004F07BB900BF53
:100A800010B50446583003F0D1FE04F1780003F0AD
:100A9000CDFE04F1980003F0C9FE04F1B800BDE8F2
:100AA000104003F0C3BE00BF3C3003F009BF00BFDD
:100AB00030B5044610202DED028B99B004F11805D5
:100AC00002F0DAFC034607A89FED3C8AADF80C3033
:100AD000039903F05DFF0F2002F0CEFC03460DF1F9
:100AE0002D00ADF81030049903F052FF152002F0EC
:100AF000C3FC03460DF13E00ADF81430059903F038
:100B000047FF122002F0B8FC03460DF14F00ADF88C
:100B10001830069903F03CFF042307A928461A461B
:100B200003F044FF0021284604F03AF9014620462C
:100B3000019102F0BBFC0023F0EE480A019904F198
:100B400058001A4603F054FE0121284604F028F903
:100B500001462046019102F0A9FC0023F0EE480A6C
:100B6000019904F178001A4603F042FE022128465A
:100B700004F016F901462046019102F097FCF0EED0
:100B8000480A00230122019904F1980003F030FE85
:100B90000321284604F004F901462046019102F0A1
:100BA00085FCF0EE480A00230122019904F1B80007
:100BB00003F01EFE19B0BDEC028B30BD6F12033B7B
:100BC0002DE9F04381468FB002F054FC01214846E4
:100BD000022602F0D7FC1B2002F04EFC03461A202E
:100BE00049F2A017ADF8143002F046FC03461C2071
:100BF00009F510454F44ADF8103002F03DFC0346B6
:100C0000484600244FF47A78ADF80C3002F04EFCE0
:100C1000059909F13C00DDE9033203F02BFEC84BD6
:100C200007A9384607940A94CDE9083610238DF8B1
:100C30002C303C2385F8A4318DF8303004F09AFD37
:100C4000AE2306AACDF80080384695F8A4118DF899
:100C5000193033468DF8184004F022FED52306AA39
:100C6000CDF80080384695F8A4118DF81930334638
:100C70008DF8184004F014FE802306AACDF80080F9
:100C8000384695F8A4118DF8193033468DF8184080
:100C900004F006FEA82306AACDF80080384695F891
:100CA000A4118DF8193033468DF8184004F0F8FD82
:100CB0001F2306AACDF80080384695F8A4118DF8B8
:100CC000193033468DF8184004F0EAFDDA2306AAFD
:100CD000CDF80080384695F8A4118DF819303346C8
:100CE0008DF8184004F0DCFD122306AACDF8008030
:100CF000384695F8A4118DF8193033468DF8184010
:100D000004F0CEFDD32306AACDF80080384695F82E
:100D1000A4118DF8193033468DF8184004F0C0FD49
:100D2000334606AACDF80080384695F8A4118DF810
:100D300018408DF8194004F0B3FD402306AACDF801
:100D40000080384695F8A4118DF8193033468DF897
:100D5000184004F0A5FDA62306AACDF80080384669
:100D600095F8A4118DF8193033468DF8184004F029
:100D700097FDA42306AACDF80080384695F8A41163
:100D80008DF8193033468DF8184004F089FD8D2315
:100D900006AACDF80080384695F8A4118DF81930D0
:100DA00033468DF8184004F07BFD142306AACDF8D5
:100DB0000080384695F8A4118DF8193033468DF827
:100DC000184004F06DFDA12306AACDF80080384636
:100DD00095F8A4118DF8193033468DF8184004F0B9
:100DE0005FFDC82306AACDF80080384695F8A41107
:100DF0008DF8193033468DF8184004F051FD8123E9
:100E000006AACDF80080384695F8A4118DF819305F
:100E100033468DF8184004F043FD8F2306AACDF821
:100E20000080384695F8A4118DF8193033468DF8B6
:100E3000184004F035FDD92306AACDF800803846C5
:100E400095F8A4118DF8193033468DF8184004F048
:100E500027FD252306AACDF80080384695F8A41171
:100E60008DF8193033468DF8184004F019FDDB2356
:100E700006AACDF80080384695F8A4118DF81930EF
:100E800033468DF8184004F00BFD342306AACDF844
:100E90000080384695F8A4118DF8193033468DF846
:100EA000184004F0FDFCAF2306AACDF800803846B8
:100EB00095F8A41101278DF8193033468DF81840A4
:100EC00004F0EEFC1F4B49F2881007A9C5F88041D9
:100ED000C5F8843147F61223484408940D931A4B01
:100EE000099707930C97CDE90A4606F08BF90A2378
:100EF000C5F874414846C5F8704189F8E03089F872
:100F0000DC40FFF7D5FD49F2941001230F4903227D
:100F1000484409F120090C72C1E9002305F062FB85
:100F200007A948460A970B94CDE9086404F002F932
:100F300022463146484604F07BF90FB0BDE8F08305
:100F400001080109010701060106010778040024D0
:100F5000704700BF704700BF49424FF480721030A5
:100F6000C9B212F0B1BF00BF2020704740207047C7
:100F700010B504464FF4887112F0B0FC204610BD45
:100F80002DE9F04F4FF0B00885B0054600F1080795
:100F900000F14F0600F24F194FF47A7B4FF0000A30
:100FA000297B022303AA3846CDF800B0A6F14004FD
:100FB0008DF80CA08DF80D8004F072FC297B0223C3
:100FC00003AA3846CDF800B08DF80CA08DF80DA01E
:100FD00004F066FC1220CDF800B0022303AA8DF8BD
:100FE0000D003846297B8DF80CA004F059FC4FF415
:100FF0007A7014F801CF4FF0400E297B0223009045
:1010000003AA38468DF80CE08DF80DC004F048FCBA
:10101000B442ECD104F1400608F101084E455FFAF4
:1010200088F8B9D105B0BDE8F08F00BF000000001E
:101030002DE9F04FB04B8946B04CB1492DED048BF2
:10104000246883B01B68096808EE103AAD4B1B6832
:10105000002A76D008EE904A804609EE901A09EEF2
:10106000103A93460024A84EA84D15E0DFEDA87A6B
:10107000B4EEE78AF1EE10FA01D500232B752B7937
:10108000012B05D9022B00F0A080032B00F05F811B
:1010900001343960A34554D0D8F80010A700D9F81E
:1010A000003001EB8401307D03EB840A09680028DD
:1010B0004CD0DFED977AF4EEE78AF1EE10FA01D525
:1010C000002333753379012B05D9022B00F087807B
:1010D000032B00F03E81D8F80430D9F804003B44DB
:1010E0002A7D0744CAF800101968002ABED1DFED36
:1010F000897AB4EEE78AF1EE10FAC0DD01232B7590
:101100002B79012B47D0022B00F01781032BBFD185
:10111000AA602A622A69DFED807AB4EEE79AF1EEDE
:1011200010FA40F1C380A8682B6803EB80030130FC
:101130009042196880F2B7800134A8603960A345F5
:10114000AAD103B0BDEC048BBDE8F08FDFED717A5E
:10115000F4EEE78AF1EE10FAB4DD0123337533794A
:10116000012B25D0022B00F0DF80032BB3D1326995
:10117000B0603062DFED687AF4EEE79AF1EE10FAD3
:1011800055D5B068336803EB80030130904219688D
:101190004ADAB0609FE79FED567B022385ED027B24
:1011A0002B712B6803EB820301321960AA606FE791
:1011B0000223002233710023C6E90223336803EBC4
:1011C000800301301960B06085E7AA68534B9A42EA
:1011D000E7DB2B6103232B710023AB6058E7B0687A
:1011E0004E4B9842EADB3361032333710023B36033
:1011F00071E7202192FBF1F3012BB8BF01231846C0
:101200000093336A01339842336240F3B980B16985
:101210000B449342B4BF9900002133680B44196812
:10122000B3680133934200DB0023B36053E7DFED83
:10123000397AF4EEE79AF1EE10FADADCDFED347A7F
:10124000F4EEE79AF1EE10FA00F38780DFED347ADE
:10125000F4EEE79AF1EE10FA00F3A580DFED317AB3
:10126000F4EEE79AF1EE10FACCBF04210221C1E7B7
:10127000202192FBF1F3012BB8BF01239A462B6A80
:1012800003F1010CE245C5F820C068DDAB69634499
:101290009342B4BF990000212B680B441968AB68D6
:1012A0000133934200DB0023AB60F1E6DFED197AF6
:1012B000B4EEE79AF1EE10FADADCDFED157AB4EE6F
:1012C000E79AF1EE10FA46DCDFED157AB4EEE79A14
:1012D000F1EE10FA65DCDFED137AB4EEE79AF1EE89
:1012E00010FACCBF04210221C3E700BFAFF3008096
:1012F000000000000000000008000024040000249A
:10130000849700248897002438970024609700244D
:101310009A99193FCDCC4C3FCDCC4C3D00F22B00DF
:10132000CDCCCC3ECDCC4C3EB2680323B060012A7C
:101330003371B8BF012232611CE7AB68AA60012B90
:10134000B8BF01231A462B6103232B71E3E62A69F8
:10135000E1E632690EE710218BE710214AE700230E
:1013600000912B6213F0A2FA0099D5F820C02A69E7
:1013700090FBF1F303FB11000AFB00F3AB6186E77E
:1013800000230191336213F091FA0199336A3269B3
:1013900090FBF1FC0CFB1101009800FB01F1B16125
:1013A00036E7082165E7082124E700BF2DE9F04F63
:1013B0008BB00F789DF85040019107940AAC04E976
:1013C0000C00002F00F0BA809DF8213082469DF875
:1013D00020600493099B0693A7F12004E3B25E2BDF
:1013E00000F2AD80DAF80030794ADB68934240F0D1
:1013F000CE804020BAF804303344834200F3C380E7
:10140000DAF80030734A9B68934240F0C380202092
:10141000BAF80630049A03931344834200F3B3806E
:10142000002A00F0C28002FB04F46FF0004E069B1D
:10143000A6441444BAF8048003EB4E0E023BDDF8D8
:101440000CC003EB4403DDF81C90059702933EF8B3
:10145000020F002E3BD00CF0070301254FEADC02FF
:1014600008F110019D40BCF11F0F4FEA8212434664
:101470006DB298BF0024114488BF0124EF4351444A
:10148000B9F1000F5FD14A460DE03F2B06D82CB9C9
:1014900091F800B045EA0B0B81F800B00132013140
:1014A0000133B24213D000FA02FB1BF4004FECD020
:1014B0003F2BF3D8002CF1D191F800B0013201316B
:1014C000013307EA0B0BB24201F801BCEBD1029BDE
:1014D0000CF1010C7345BAD1059FDAF8002008EB36
:1014E00006043B49D368A4B28B4259D140208442C0
:1014F00004D3D36836498B4260D13F249368354A80
:10150000AAF80440934248D12020039B834207D38A
:10151000DAF800302F4A9B68934249D11F23039386
:10152000039BAAF80630019B1B789F424DD1019B7B
:1015300013F8017F0193002F7FF44EAF0027384648
:101540000BB0BDE8F08F00220DE03F2B06D82CB980
:1015500091F800B045EA0B0B81F800B0013201317F
:101560000133B242B3D000FA02FB1BF4004FECD1BE
:101570003F2BF3D8002CF1D191F800B007EA0B0B08
:1015800081F800B0EAE7019B00271B78CDE75046C1
:1015900098472FE7504698473AE750469847B4E7B0
:1015A00050469847DAF80020A1E7BAF8048094E79B
:1015B00050469847013883B20393B1E750469847A5
:1015C0000138DAF8002084B298E71F46B7E700BF79
:1015D0006D0F0008690F00083F291ED81F2A1CD86C
:1015E0006BB1D3084FF0010C02F0070201EB83133B
:1015F0000CFA02F2C1180B7C1A430A747047D30824
:101600004FF0010C02F0070201EB83130CFA02FC0D
:10161000C1180A7C22EA0C020A7470472DE9F04FC7
:101620008BB01D460F469DF8583007901046099321
:1016300010F8013BDDF850C01599009233B100223B
:1016400010F8013B0132002BFAD193B22A78687866
:1016500012FB03F302B21BB223EAE373082900F280
:10166000D981DFE811F007011A016B01850126011C
:1016700036014F0156010900BCF80410BCF80040C7
:101680000C44BCF90610E41A0029A4B2C0F203818C
:10169000BCF802C007980CEB6106C280A6EB5202B0
:1016A0008380048096B24680AF4A3B68114603921D
:1016B000DA688A4240F0C3814020A04205D8DA6847
:1016C00003998A4240F0C4813F24A84A9B68BC80A9
:1016D0009342049240F0AF812020B04206D83B688C
:1016E000049A9B68934240F0AE811F26009BFE80C7
:1016F00093F800A06B782C7805936B680893BAF187
:10170000000F00F0B380AAF12005EBB25E2B00F2CF
:10171000AD803B68039ADB68934240F05F814020D4
:10172000BB882344834200F354813B68049A9B683E
:10173000934240F056812020FB88059A029313447F
:101740009842C0F24681002A00F0558102FB05F55F
:101750006FF0004E089BAE441544B7F8048003EBCD
:101760004E0E023BCDF818A0BA4603EB4503DDF858
:1017700008C0099F01933EF8020F002C3CD00CF0EA
:10178000070301264FEADC0208F110019E40BCF17C
:101790001F0F4FEA8212434676B298BF00251144CC
:1017A00088BF01256FEA06095144002F40F0F08000
:1017B0003A460DE03F2B06D82DB991F800B046EA25
:1017C0000B0B81F800B0013201310133944213D088
:1017D00000FA02FB1BF4004FECD03F2BF3D8002D96
:1017E000F1D191F800B001320131013309EA0B0B5C
:1017F000944201F801BCEBD1019B0CF1010C9E4518
:10180000B9D15746DDF818A03A6808EB04050399EA
:10181000D368ADB28B4240F0EA804020854205D3C8
:10182000D36803998B4240F0E9803F259368049A7E
:10183000BD80934240F0D8802020029B834207D392
:101840003B68049A9B68934240F0DE801F2302931A
:10185000029BFB80009B1B789A4507D1009B13F8E5
:1018600001AF0093BAF1000F7FF44DAF07980BB0B2
:10187000BDE8F08FBCF90410BCF800400029B8BFE7
:10188000013104EB6104BCF90610A4EB63040029E8
:10189000A4B2BFF6FDAE0131FAE6BCF90040BCF9D6
:1018A000026007990C80A4B24E80B6B28B80CA80C9
:1018B000FAE6BCF80610BCF80260BCF900400E4421
:1018C0000799301A0C808B80A4B286B2CA804E80F1
:1018D000EAE6BCF90410BCF800400029B8BF0131A9
:1018E00004EB6104A4EB6304BCF80260A4B2BCF88E
:1018F00006C0079966448B80301ACA800C8086B275
:101900004E80D1E6BCF80040BCF804100C44E41A48
:10191000EAE7BCF90610BCF900400029BCF802C097
:101920000798B8BF0131C2800CEB61060480838048
:10193000A4B2A6EB520296B24680B5E6BCF90410FA
:10194000BCF800400029BCF90260B8BF013104EBCB
:10195000610407998B80A4EB63034E80B6B29CB2FE
:10196000CA800C80A0E600BF6D0F0008690F000858
:10197000BCF80410BCF80040BCF902600C440799A4
:101980008B80E31A4E80B6B29CB2CA800C808BE684
:1019900000220EE03F2B06D82DB991F800B046EAA0
:1019A0000B0B81F800B001320131013394423FF456
:1019B00023AF00FA02FB1BF4004FEBD13F2BF2D810
:1019C000002DF0D191F800B009EA0B0B81F800B0BE
:1019D000E9E7009B4FF0000A1B783DE7384698473F
:1019E0009EE638469847A7E63846984725E73846A2
:1019F00098473A6812E7B7F8048005E738469847F1
:101A000001383A6885B211E738469847013883B201
:101A100002931DE73B680026079A1049166056603E
:101A2000DA6803918A4209D19B680D4ABE809342CD
:101A300004923FF45BAE384698474EE6344638464B
:101A400090473B6839E638469847013886B24DE6FC
:101A50003846904701383B6884B236E66D0F00087F
:101A6000690F00082DE9F04F87B0A1F1200506AC01
:101A70009DF84080029104E90C00EBB25E2B00F26D
:101A80009A80036807466E4ADB689DF810409342CF
:101A90009DF8116040F0B9804020BB882344834208
:101AA00000F389803B68674A9B68934240F0AF80AF
:101AB0002020FA889319039283427CDC002E00F0E8
:101AC000B08006FB05F56FF00040059B28442E44CE
:101AD000B7F8049003EB4000023B03EB4603864655
:101AE000164601934346B8461F463EF8025F002C57
:101AF0003CD006F007034FF0010CF20809F1100189
:101B00000CFA03FC1F2E4FEA82124B464FFA8CFC54
:101B100098BF0020114488BF01206FEA0C0A41449D
:101B2000002F4CD13A460DE03F2B06D828B991F84A
:101B300000B04CEA0B0B81F800B0013201310133E7
:101B4000A24213D005FA02FB1BF4004FECD03F2B4E
:101B5000F3D80028F1D191F800B0013201310133FE
:101B60000AEA0B0BA24201F801BCEBD1019B013642
:101B70009E45BAD147463B684C443149DA68A4B225
:101B80008A424AD14020844239D29B682D4ABC8087
:101B900093423FD12020039B834206D33B68294ACE
:101BA0009B68934246D11F230393DDE90203FB8028
:101BB00007B0BDE8F08F002007B0BDE8F08F00222D
:101BC0000DE03F2B06D828B991F800B04CEA0B0B7A
:101BD00081F800B0013201310133A242C6D005FACA
:101BE00002FB1BF4004FECD13F2BF3D80028F1D1BE
:101BF00091F800B00AEA0B0B81F800B0EAE7DA6866
:101C00000F498A4210D13F24BFE7984745E738463D
:101C100098474EE738469847BDE7384690473B68B7
:101C2000B1E7B7F80490A6E73846904701383B681B
:101C300084B2AAE738469847013883B20393B4E7E1
:101C40006D0F0008690F00082DE9F04F83B05C1A92
:101C50000C9D002C9DF834E0A5EB0207B8BF644250
:101C6000002FB8BF7F428B428CBF4FF001094FF06D
:101C7000FF399542A4EB070C4BD83F2B00F2928022
:101C80001F2D00F28F804FF0FF3605F007080096F9
:101C9000EE0803EB86160644BEF1000F48D14FF064
:101CA000010E8B420EFA08F896F810E02EEA080EA4
:101CB00086F810E001D1954228D07E4201974FEA84
:101CC000D20E3F2902F0070A4FEA4C0801EB8E1EA4
:101CD0000CD81F2A864409D84FF0010B0BFA0AFBD7
:101CE0009EF810A02AEA0B0A8EF810A0B6EB4C0F53
:101CF00003DA019F4944ACEB070C444502DD009F29
:101D0000A4443A448B42DAD19542D8D103B0BDE81D
:101D1000F08F01263F2B00964BD81F2D49D8EE0897
:101D200005F0070803EB86160644BEF1000FB6D097
:101D30004FF0010E8B420EFA08FE96F810804EEA24
:101D4000080E86F810E001D19542DFD07E4201975F
:101D50004FEAD20E3F2902F0070A4FEA4C0801EB86
:101D60008E1E0CD81F2A864409D84FF0010B0BFA9F
:101D70000AFA9EF810B04AEA0B0A8EF810A0B6EBE9
:101D80004C0F03DA019F4944ACEB070C444502DDDC
:101D9000009FA4443A449942DAD19542D8D103B085
:101DA000BDE8F08F954201D18B42AFD04FF0FF36A6
:101DB00000967E420197BEF1000FC9D17FE700BFB8
:101DC0002DE9F04F2DED068B83B01F461646804659
:101DD0009DF850300D460193DDE91223002B13448A
:101DE000C0F21F8206EE103ADDED127AB8EEC66B35
:101DF0009FEDCD4BB8EEE77B9FEDCD5B27EE047BEF
:101E000026EE046B87EE050B86EE05ABF7EEC08B76
:101E1000B0EE680A11F000FE07EE907AB7EECAAB9A
:101E2000F8EE679AB0EE408AB0EE680A11F0F0FE64
:101E300060EE698AB0EE4A0A11F0EEFDB0EE409A0B
:101E4000B0EE4A0A11F0E4FE20EE690A29EE888A13
:101E500029EE899A70EE687AF0EE006A39EE487AD7
:101E600067EEA77AE7EE077AF4EEE67AF1EE10FA7B
:101E700006D5139BB42B40F396804FF0010901E087
:101E80004FF00009012478424FF0000C0095E31B4D
:101E9000214627462246A340B9F1000F6AD14242AB
:101EA00006EE90CACCF1000107EE102AB8EEE66A01
:101EB00007EE901A06EE900AB8EEC77A139A66EE0D
:101EC000084AF8EEE77AB42A27EE284AF8EEE66ADE
:101ED00067EE885A74EEC43A26EEA85A26EE096ACE
:101EE00066EE806A67EE897A27EE007AF5EEC03AF0
:101EF00040F3F280F1EE10FA00F17F8176EE473A7E
:101F000074EEC54AF5EEC03AF1EE10FAF5EEC04AAD
:101F1000CCBF01220022F1EE10FA00F1778136EEFB
:101F2000666A35EEC55AB5EEC06AF1EE10FAB5EE46
:101F3000C05ACCBF01210021F1EE10FA00F16F81EF
:101F400077EEE66AF5EEC06AF1EE10FACCBF012733
:101F5000002775EEC45AF5EEC05AF1EE10FA00F102
:101F6000478177EEC77AF5EEC07AF1EE10FACCBF72
:101F700001240024002A40F08A80002964D1BFB9DE
:101F8000C4BB9C4558DB0CF1010C03EB4C0E1CEB65
:101F9000000F0EF1010E00F0C08098424FDB734637
:101FA00000287FF779AF03B0BDEC068BBDE8F08F5A
:101FB000009DA6EB0C0E00EB050ABAF13F0FDFD82F
:101FC000BEF11F0FDCD84FEADE0B019D0AEB8B1A26
:101FD000002D00F0B1800EF0070BC2444FF0010E4F
:101FE0000EFA0BFE9AF810B04EEA0B0E8AF810E0CB
:101FF000002CC6D0009DA6EB0C0EA5EB000ABAF192
:102000003F0FBED8BEF11F0FBBD84FEADE0B019DBC
:102010000AEB8B1A002D00F0AE800EF0070BC244C5
:102020004FF0010E9C450EFA0BFE9AF810B04EEAE6
:102030000B0E8AF810E0A6DA98429E46AFDA01301D
:102040000EEB40030133ABE7009D0CEB060E00EBFB
:10205000050ABAF13F0F92D8BEF11F0F8FD84FEA91
:10206000DE0B019D0AEB8B1A002D73D00EF0070BCF
:10207000C2444FF0010E0EFA0BFE9AF810B04EEA71
:102080000B0E8AF810E0002F3FF47AAF90E7009D26
:102090000CEB060EA5EB000ABAF13F0F3FF66DAF51
:1020A000BEF11F0F3FF669AF4FEADE0B019D0AEB51
:1020B0008B1A002D6DD00EF0070BC2444FF0010EAD
:1020C0000EFA0BFE9AF810B04EEA0B0E8AF810E0EA
:1020D00000293FF454AFB7E7F1EE10FA7ED44A4638
:1020E00074EEC54AF5EEC04AF1EE10FA6CD4002148
:1020F00035EEC55AB5EEC05AF1EE10FA5AD40027A3
:1021000075EEC45AF5EEC05AF1EE10FA3FF529AF5C
:102110000024002A3FF431AFB9E798428FDB002357
:102120003BE700BFAFF300807A008BFCFA21094047
:102130000000000000806640C2444FF0010B0EF02A
:10214000070E0BFA0EFE9AF810B02BEA0E0E8AF864
:1021500010E015E7C2444FF0010B0EF0070E0BFA2A
:102160000EFE9AF810B02BEA0E0E8AF810E0002F3F
:102170003FF406AF1CE7C2444FF0010B0EF0070E10
:102180000BFA0EFE9AF810B02BEA0E0E8AF810E049
:10219000F7E6C2444FF0010B0EF0070E0BFA0EFEED
:1021A0009AF810B02BEA0E0E8AF810E000293FF4DE
:1021B000E6AE49E777EEE66AF5EEC06AF1EE10FAB0
:1021C000CCBF012700279BE736EE666AB5EEC06AF2
:1021D000F1EE10FACCBF0121002189E776EE473AF3
:1021E000F5EEC03AF1EE10FACCBF0122002277E7FB
:1021F0000124002A3FF4C1AE49E774EEC54A01222A
:10220000F5EEC04AF1EE10FA7FF589AE35EEC55A0B
:102210000121B5EEC05AF1EE10FA7FF591AE01271B
:1022200097E6129306EE102A139B5B421393DBE5AD
:102230002DE9F04F89B09DF85050129C9DF84C70DC
:102240000595002D40D0994221D89C46A2421BD82A
:102250003F29154694BF00230123DFB9EE0805F09E
:1022600007084FF0010E1F2D01EB861675440EFA7C
:1022700008FE07D806442BB996F8108028EA0E0EFF
:1022800086F810E0AC42E9D201318C45DED209B0CB
:10229000BDE8F08FEE0805F007084FF0010E1F2D86
:1022A00001EB861675440EFA08FE07D806442BB9D2
:1022B00096F810804EEA080E86F810E0AC42E9D29B
:1022C00001318C45C2D2E2E7A3EB010EBEF1000F53
:1022D000B8BFCEF1000E9942C0F09C813F2B94BF55
:1022E000002501251F2A019594BF002601263543AC
:1022F0000796039540F0C4834FF0FF3BD50803EBEE
:1023000085150544002F00F0978302F0070C012685
:10231000994206FA0CF695F810C046EA0C062E749F
:102320004FF0000500F0C68301950795F04616466C
:102330008C46F508BCF13F0F0CEB85150ED81F2E0F
:1023400005440BD806F0070A4FF0010909FA0AF90B
:1023500095F810A049EA0A0985F810905FEA480547
:1023600018BFDC44AE4540F38D81013EF044B242DB
:10237000DFD16345DDD100250395A51AA24285EA88
:10238000E576A6EBE57635460496C0F01C821F2C58
:10239000C5F1000A019D94BF00260126354306962B
:1023A00040F07483E6084FF0FF3503EB8616019585
:1023B0000644002F00F01E824FF0010E04F0070CBF
:1023C000A2420EFA0CFC96F810E04CEA0E0C86F8CD
:1023D00010C000F06B830025D146069594461E463A
:1023E000554602924FEADC0E3F2E4FEA450806EBB7
:1023F0008E1E0FD8BCF11F0F86440BD84FF0010B77
:102400000CF0070A0BFA0AFA9EF810B04AEA0B0A17
:102410008EF810A0B9EB450F02DA049A013EAD1A0E
:10242000B8F1000F01D0019A9444A3EB060A644569
:1024300008BFB342BAFA8AFA4FEA5A1A00F0C181C9
:10244000C845CFDC029A9B464FEADC0E3F2E0CF0CB
:10245000070806EB8E1E0DD8BCF11F0F864409D865
:102460004FF0010909FA08F89EF8109048EA0908A7
:102470008EF810800DB1019B9C446445E4D1BAF103
:10248000000FE1D000255B460595A1EB030CBCF1E4
:10249000000FB8BFCCF1000C3F2994BF4FF0000BE8
:1024A0004FF0010B99428CBF4FF0010E4FF0FF3EF1
:1024B000BBF1000F40F05582069D002D40F0518287
:1024C000E50801EB85150544002F00F0A8824FF0C8
:1024D000010804F0070608FA06F695F8108046EAA7
:1024E00008062E74039D15BBE0462646F5083F2BD3
:1024F00003EB85150ED81F2E05440BD806F0070AEE
:102500004FF0010909FA0AF995F810A049EA0A09F9
:1025100085F810905FEA480518BF7344AC4540F356
:10252000E780013EE044B442E0D19942DED1A2EB23
:10253000040EBEF1000FB8BFCEF1000EA2428CBF58
:1025400001254FF0FF35CEF1000CBBF1000F40F03C
:10255000B681079B002B40F0B281D30801EB8313B7
:102560000344002F00F0778202F007070126BE40E7
:102570001F7C3E431E74059B002B7FF488AE67468C
:102580000E468946E3083F2E4FEA470106EB8313C8
:102590000ED81F2C03440BD804F0070A4FF0010893
:1025A00008FA0AF893F810A048EA0A0883F810809D
:1025B000BCEB470F02DA013EA7EB0E0701B12C443A
:1025C000A9EB0603A242B3FA83F34FEA531302D1F5
:1025D000002B7FF45CAE8C45D4DB9846E3081F2CBF
:1025E00004F0070C06EB83130AD83F2E034407D8E8
:1025F000012101FA0CF193F810C041EA0C011974A1
:1026000007B12C44A242E9D1B8F1000FE6D009B0DD
:10261000BDE8F08F1F2A4FF0010B94BF0025012564
:102620003F2B079594BF00260126019615B9002E71
:102630003FF464AE002F7FF479AEF04616468C4628
:10264000F508BCF13F0F0CEB85150ED81F2E054485
:102650000BD84FF0010906F0070A09FA0AFA95F8B3
:10266000109029EA0A0985F810905FEA480518BF1A
:10267000DC44AE456EDD013EF044B242E0D163453C
:10268000DED178E6951BB5FA85F56D0902956345AF
:1026900014BF002505F001050395002D7FF46BAEF6
:1026A00006F007094FF0010E0EFA09FE4FFA8EFAF6
:1026B0004FEAD60E4FEA8E150495029D0292049AB7
:1026C000BCF13F0F0CEB020E864407D81F2E05D835
:1026D0009EF810904AEA09098EF81090B8F1000FA0
:1026E00000D0DC446345EAD1002DE8D0029A44E6EC
:1026F000A51B9942B5FA85F54FEA5515019502D10A
:10270000002D7FF414AF06F007094FF0010C0CFA0E
:1027100009FC4FFA8CFA4FEAD60C4FEA8C15029559
:10272000019D0192029A3F2B02EB030C844407D8CF
:102730001F2E05D89CF810904AEA09098CF81090D1
:10274000B8F1000F00D073449942EBD1002DE9D0CD
:10275000019AECE6951BB5FA85F56D09029563457E
:1027600014BF002505F001050395002D7FF403AE8D
:1027700006F007094FF0010E0EFA09FE6FEA0E0E81
:102780004FFA8EFA4FEAD60E4FEA8E150495029D47
:102790000292049ABCF13F0F0CEB020E864407D85C
:1027A0001F2E05D89EF810900AEA09098EF810909D
:1027B000B8F1000F00D0DC446345EAD1002DE8D029
:1027C00094E7029A61E61F2CC6F1000A94BF002527
:1027D00001250695002D40F04C81019D002D40F013
:1027E0004881E608012503EB861601950644002F73
:1027F0007FF4E2AD04F0070E4FF0010896F810C028
:10280000A24208FA0EFE2CEA0E0C86F810C000F068
:102810004581D146069794461E46554602924FEA98
:10282000DC0E3F2E4FEA450806EB8E1E0FD8BCF19A
:102830001F0F86440BD84FF0010A0CF0070B0AFA61
:102840000BFB9EF810A02AEA0B0A8EF810A0B9EB39
:10285000450F02DA049A013EAD1AB8F1000F01D01B
:10286000019A9444A3EB060A644508BFB342BAFA3E
:102870008AFA4FEA5A1AA4D0C845D0DC029A9B467D
:102880004FEADC0E3F2E0CF0070806EB8E1E0DD82B
:10289000BCF11F0F864409D84FF0010909FA08F965
:1028A0009EF8108028EA09088EF810800DB1019B6F
:1028B0009C446445E4D1BAF1000FE1D0E2E5059B08
:1028C000002B7FF4E4AC002F7FF459AE67460E4630
:1028D0008946E3081F2C4FEA470106EB83130ED805
:1028E0003F2E03440BD84FF0010804F0070A08FA02
:1028F0000AFA93F8108028EA0A0883F81080BCEBE3
:10290000470F02DA013EA7EB0E0701B12C44A9EBF9
:102910000603A242B3FA83F34FEA531302D1002B0A
:102920007FF4B5AC8C45D4DB9846E3083F2E04F029
:10293000070106EB83130AD81F2C034407D84FF076
:10294000010C0CFA01FC197C21EA0C01197407B185
:102950002C44A242E9D1B8F1000FE6D009B0BDE89D
:10296000F08F039D002D7FF4E2AD002F7FF4BCAD0E
:10297000E0462646F5081F2E03EB85150ED83F2BA3
:1029800005440BD84FF0010906F0070A09FA0AFAC4
:1029900095F8109029EA0A0985F810905FEA480531
:1029A00018BF7344AC4507DD994206F1FF36E04499
:1029B000E0D1B442DED1BAE5A51B9942B5FA85F55E
:1029C0004FEA5515019502D1002D7FF4B0AD4FF0BF
:1029D000010C06F007090CFA09FA4FEAD60C6FEA67
:1029E0000A0A4FEA8C154FFA8AFA0295019D019264
:1029F000029A3F2B03EB020C844407D81F2E05D804
:102A00009CF810900AEA09098CF81090B8F1000FB0
:102A100000D073449942EBD1002DE9D098E601260D
:102A200004F0070806FA08F82E7C26EA08062E7439
:102A3000039D002D9CD07AE502F007064FF00108B7
:102A4000994208FA06FC2E7C26EA0C062E7428D041
:102A500001970797F1E5012602F0070706FA07F745
:102A60001E7C26EA07061E74059B002B3FF42EAF42
:102A70000DE401250195D146002F7FF4AFACCAE6E5
:102A800099423FF47AAC4FF0FF3BD3E5A24203D02A
:102A90004FF0FF350195EEE70595F6E4CDE90587A2
:102AA000F3E4CDF80C800797019766E40025CDE9A3
:102AB0000575EAE40795039701955EE400000000C0
:102AC00010B52F4C2046FDF7DBFF2046FDF7ECFF4D
:102AD000D4F8A4102B4A2C4B1160D4F8C4102B4A04
:102AE0001960616E2A4B1160D4F884201A6094F842
:102AF0004130FF2B02D0802B2CD010BD04F054FDB0
:102B000007EE900AD4ED116AF8EE677A9FED217A0C
:102B100077EEE67AF4EEC77AF1EE10FA26DB1E4A7B
:102B200000211E4B1171117594F8414019711975EE
:102B3000802C1B491B48116119619FED0F7B82EDB1
:102B4000027B4FF0010283ED027B0270D5D100239E
:102B5000037010BD13480378002BF8D101230E49F0
:102B60000E4A0B71137100230370F2E794F84130A1
:102B7000C1E700BFAFF300800000000000000000CC
:102B80008404002404000024080000248497002406
:102B90008897002400007A44389700246097002426
:102BA00000F22B002C9700242DE9F04FA24D8FB09E
:102BB000A24CA348FEF704F800232C600021A14C8E
:102BC0000020DFF8A0B2A04A2B75AB612B622B71FD
:102BD0002375A361236223719C4B2A6122612360C8
:102BE000C5E90201C4E90201ABF51040FDF744FF5D
:102BF0009749ABF51040FDF73DFFFFF761FF04F08B
:102C0000D3FC944B1B68C31A1E2BF6D9914B4FF47F
:102C1000807200211860904811F056F9802300223C
:102C20008BF88732D10802F00700012301320BEB49
:102C3000811183401F2A91F8C70143EA000381F8FC
:102C4000C731EFD10023CBF89C317B4B1B79032B91
:102C500000F26283814A52F82320814B92F800A04F
:102C6000597893F800905B68049205910893BAF143
:102C7000000F00F086804D46AAF12003DAB25E2AEA
:102C800000F24483BBF89C9109EB0502402A0692AE
:102C900000F33C83BBF89E21059907920A44202A41
:102CA00000F33483002953D001FB03F3002D4FD0F0
:102CB0006FF0004E089ACDF824A09E440B44DDF836
:102CC0001CC002EB4E0E023A02EB4303039349F29F
:102CD000A8134B449A460CF0070301264FEADC0286
:102CE000BCF11F0F06FA03F6554B0AEB82123EF8B1
:102CF000024F76B249461A4498BF00276FEA060889
:102D000088BF012700230AE03F2903D817B91078AC
:102D100030431070013301320131AB4211D004FA5B
:102D200003F00004F0D43F29F4D8002FF2D110783A
:102D300001330132013108EA0000AB4202F8010C14
:102D4000EDD1039B0CF1010C7345C4D1DDF824A037
:102D5000079ABDF818301F2A28BF1F223F2B28BF13
:102D60003F23ABF89E21ABF89C31049A137853456E
:102D700006D112F801AF0492BAF1000F7FF47CAFD4
:102D8000A9462223CBF89C312E4B1B79032B00F252
:102D9000D082324A52F8233093F800A00493BAF15B
:102DA000000F00F09D804D46AAF12003DAB25E2AA2
:102DB00000F2AF82BBF89C9109EB0502402A069213
:102DC00000F3A782BBF89E21059907920A44202AA6
:102DD00000F39F8200296BD001FB03F3002D67D025
:102DE0006FF0004E089ACDF824A09E440B44DDF805
:102DF0001CC002EB4E0E023A02EB4303039349F26E
:102E0000A8134B449A460CF0070301264FEADC0254
:102E1000BCF11F0F06FA03F6094B0AEB82123EF8CB
:102E2000024F76B249461A4498BF00276FEA060857
:102E300088BF0127002322E03897002400C8AFC0D4
:102E4000840400246097002400F22B00000000C0DE
:102E500031100008309700242C9600246C6D010876
:102E600050010024849400243F2903D817B9107816
:102E700030431070013301320131AB4211D004FAFA
:102E800003F00004F0D43F29F4D8002FF2D11078D9
:102E900001330132013108EA0000AB4202F8010CB3
:102EA000EDD1039B0CF1010C7345ACD1DDF824A0EE
:102EB000079ABDF818301F2A28BF1F223F2B28BFB2
:102EC0003F23ABF89E21ABF89C31049A137853450D
:102ED00006D112F801AF0492BAF1000F7FF464AF8B
:102EE000A64BBFF35B8F9FEDA67A1B68BFF35B8F8A
:102EF00007EE903AF4EEC77AF1EE10FA00F12A826A
:102F00009FEDA07AF4EEC77AF1EE10FA00F320827A
:102F10009FED9D7AF4EEC77AF1EE10FA00F34D8240
:102F20009FED9A7AF4EEC77AF1EE10FA00F353822D
:102F30009FED977AF4EEC77AF1EE10FACCBF042237
:102F4000022294490BA811F0FFFC934A4FF4C013DE
:102F5000517892F80090CBF89C3152689DF82C3053
:102F600007910892002B7CD00BAA4FF000084D4629
:102F70000492203BDAB25E2A73D808EB0502402A9D
:102F800005926EDCBBF89E21079906920A44202A1E
:102F900067DC002950D001FB03F3002D4CD06FF00B
:102FA000004E089ADFF800A29E440B44C244DDF8AC
:102FB00018C002EB4E0E023A02EB430303930CF0EF
:102FC000070301264FEADC02BCF11F0F06FA03F6E5
:102FD0001FFA8AF33EF8024F414603EB82126F4B11
:102FE00076B298BF00271A4488BF01276FEA060906
:102FF00000230AE03F2903D817B910783043107036
:10300000013301320131AB4211D004FA03F0000464
:10301000F0D43F29F4D8002FF2D1107801330132D7
:10302000013109EA0000AB4202F8010CEDD1039B2B
:103030000CF1010C7345C2D1069BBDF814801F2B07
:10304000049A28BF1F23B8F13F0FABF89E3128BF69
:103050004FF03F0812F8013FABF89C810492002B1F
:1030600087D14F4BBFF35B8F9FED457A1B68BFF352
:103070005B8F07EE903AF4EEC77AF1EE10FA00F1AA
:1030800060819FED407AF4EEC77AF1EE10FA00F31A
:1030900056819FED3D7AF4EEC77AF1EE10FA00F317
:1030A0008E819FED3A7AF4EEC77AF1EE10FA00F3D2
:1030B00088819FED377AF4EEC77AF1EE10FACCBF33
:1030C0000422022233490BA811F03EFC324A354B50
:1030D000517892F80090CBF89C3152689DF82C30D2
:1030E00007910892002B00F099800BAA4FF022085C
:1030F0004D460492203BDAB25E2A00F28F8008EB44
:103100000502402A059200F38980BBF89E210799A9
:1031100006920A44202A00F38180002968D001FB2E
:1031200003F3002D64D06FF0004E089ADFF878A00A
:103130009E440B44C244DDF818C002EB4E0E023A26
:1031400002EB430303930CF0070301264FEADC0272
:10315000BCF11F0F06FA03F61FFA8AF33EF8024F7E
:10316000414603EB82120D4B76B298BF00271A44FA
:1031700088BF01276FEA0609002322E08497002414
:10318000CDCC4C3DCDCC4C3F9A99193FCDCCCC3ECB
:10319000CDCC4C3E086C010850010024840400246E
:1031A0008897002422001800A891FFFF3F2903D828
:1031B00017B91078304310700133013201319D424C
:1031C00011D004FA03F00004F0D43F29F4D8002F02
:1031D000F2D1107801330132013109EA00009D4239
:1031E00002F8010CEDD1039B0CF1010C7345AAD13F
:1031F000069BBDF814801F2B049A28BF1F23B8F12B
:103200003F0FABF89E3128BF4FF03F0812F8013F47
:10321000ABF89C810492002B7FF46CAF6F4B1B7951
:103220009A1E012A40F2A5806D4B1B799A1E012A35
:1032300026D86B4A032B926807EE902A0392B8EEC9
:10324000E77A00F08E80DFED676AC7EE267AB3EE8C
:103250000C7A67EE877AFDEEE77A17EE900A223055
:1032600021280DD9604A22233F2B03F1010303D803
:10327000117861F00F011170984202F10102F3D24E
:103280005A4DB0264FF47A77002402230AAA9BF8FD
:10329000A411574800978DF828408DF8296002F056
:1032A000FFFA02230AAA9BF8A411514800978DF84F
:1032B00028408DF8294002F0F3FA12230AAA9BF85D
:1032C000A4118DF829300223494800978DF8284031
:1032D000A5F1400402F0E4FA4FF47A730AAA9BF8CD
:1032E000A411009314F8013F41488DF82930402380
:1032F0008DF82830022302F0D3FAA542ECD14035F4
:103300003C4B01369D42F6B2BCD176E44FF0000A48
:103310002BE54FF0000AD8E5374B4FF0450A93F8FC
:1033200000905A785B684D4605920893334B04939E
:10333000A2E4324B4FF0450A4D46049334E5202277
:10334000C0E62F4B93E803000B908DF83010BDE6DC
:103350002022F6E52A4B93E803000B908DF83010FD
:10336000F3E51F4B1B6907EE903A0393F8EEE76A0B
:103370006BE71A4A032B926807EE902A0392F8EE45
:10338000E76A20D09FED177AC6EE877A1D4A0023A0
:10339000B3EE0C7A67EE877AFDEEE77A17EE900AC5
:1033A0003F2B03F1010303D8117861F00F01117075
:1033B000984202F10102F3D236E71022C1E5102251
:1033C00080E608227EE6054B1B6907EE903A0393E0
:1033D000B8EEE77AD8E70822B3E500BF38970024B3
:1033E0006097002400C82F4A8E9600246B96002414
:1033F000249600246B97002450010024FC6B0108E4
:10340000006C01086C96002414480022144900F551
:10341000104310B40C888988A3F88441114C0260D1
:10342000C3F88C414FF60F044261A3F89041072482
:10343000026283F892410C4CC0F8D820C3F8802176
:10344000A3F88611C3F88821C3F8A021C3F89841D6
:10345000064A07495DF8044B10F0C8B984040024FB
:10346000B86B010880707FF0386D010800000024FF
:10347000510F0008704700BF1F2882B009D8084BC1
:1034800003EB400213F81030507843EA002002B0FA
:10349000704701230C2043EA002002B0704700BFB0
:1034A0007C6D0108143001F079B900BF90ED0E0A6F
:1034B000704700BFF0B5032399B000270125129390
:1034C00006462C4B09A81595CDE90E7340F204531E
:1034D000ADF84030284BCDE91357099301F0E0FED9
:1034E00009A801F0B9FF002835D1244B04AF0446E8
:1034F0000090CDF842301023394604958DF82030E5
:103500001F4BCDE91650CDE906506846059302F0F1
:1035100031F90823009A01A909A8ADF804508DF8E3
:10352000064009940295039300F0E4F800230EA9E5
:1035300038463024049302F0E7FE03224FF07E5316
:1035400009A906F114000B93CDE90942049A01F090
:10355000EBF819B0F0BD40F60132084B169704AFF6
:10356000ADF824200998CDF84230179500F082F884
:10357000DCE700BF040204040303000104060403A3
:103580000704010B2DE9F04304462DED028B83B0B7
:10359000002948D0012140F2011200230091ADF82A
:1035A00004208DF80630304A0126304B271D304963
:1035B00004F12908626040F20272A36040F60663DB
:1035C000E16004F125092682A4F8252084F827600B
:1035D000A4F8293084F82B6004F04EF969460546BA
:1035E00048B304F130008DF8066004F0ABF8072D05
:1035F00034D104F114052046FFF75CFF284601F0A2
:10360000C9F82846B0EE408A01F0C0F8D0ED007A43
:10361000F8EE677A88EE277A84ED0E7A03B0BDEC77
:10362000028BBDE8F08340F2011300918DF8061083
:10363000ADF80430B7E704F1300004F083F8394600
:10364000204602F0E1FA484601F02AFE404601F029
:1036500027FE04F1120000F077F9CAE73946204648
:1036600002F0D2FAC5E700BF0508050905070506FF
:10367000050A060610B584B003460124ADF804001F
:1036800003A8ADF80C30ADF80E4001F009FE21465C
:1036900003A801F0EFFE204603F088FF002103A8F5
:1036A00001F0E8FE204603F081FF214603A801F067
:1036B000E1FE04B010BD00BF10B5C2F3002384B01A
:1036C0000C46017C8DF80D2043EA4402FA240223C3
:1036D0008DF80C2003AA009402F0E2F818B101243E
:1036E000204604B010BD04460A2003F05FFF2046C8
:1036F00004B010BD034670B543F8042B044684B0F3
:1037000007C983E80700A37983B91A210B461E2253
:10371000FA2523742046ADF80C20022303AA009555
:1037200002F0BEF828B1012004B070BD1B210B4689
:10373000EDE70A2003F03AFF4FF4B8520095022358
:10374000ADF80C20204603AA217C02F0A9F800283D
:10375000E9D10A2003F02AFF41F202720095022308
:10376000ADF80C20204603AA217C02F099F800282D
:10377000D9D10A2003F01AFF042200950223ADF8E4
:103780000C20204603AA217C02F08AF80028CAD126
:103790000A2003F00BFF062200950223ADF80C204F
:1037A000204603AA217C02F07BF80028BBD10A2026
:1037B00003F0FCFE41F2082200950223ADF80C2034
:1037C000204603AA217C02F06BF80028ABD10A2026
:1037D000064603F0EBFE0095022303AA217C204657
:1037E000ADF80C6002F05CF800289CD1304603F084
:1037F000DDFE009522790C232046002A8DF80C303E
:1038000003AA4FF0020314BF622142218DF80D106C
:10381000217C02F045F8002885D1304603F0C6FE31
:103820002279D4E902310B43DBB20AB943F04003F9
:1038300062790AB143F020030E22FA258DF80D308B
:103840002046009502238DF80C2003AA217C02F06B
:1038500027F800287FF467AF0A2003F0A7FE1022A4
:1038600000950223ADF80C20204603AA217C02F02B
:1038700017F800287FF457AF0A2003F097FE1221B3
:1038800000950223ADF80C1003AA217C204602F01B
:1038900007F800287FF447AF0A2003F087FE0122D3
:1038A00009212046FFF708FF003818BF01203BE739
:1038B000F0B5102387B0234C0122002501260027F4
:1038C00002A920460195CDE902234FF48052CDE9AB
:1038D00004670AF0E7FF642004F074FA02A94FF4C9
:1038E00080522046CDE9046702261027CDE9026701
:1038F0000AF0D8FF0322102302A92046CDE90223B3
:1039000000230422CDE904234FF480520AF0CAFFB9
:1039100040F23223042202A9019310232046CDE96C
:103920000223019A012305924FF4805204930AF076
:10393000B9FF40F6060120460AF0D4FF284607B03A
:10394000F0BD00BF949700241C4B00221C494FF08F
:10395000400C30B5054689B00220596007219A60B5
:103960001A620124DA620A224FF4006EDC600692C9
:103970002022CDE9000104200821CDE90201032025
:103980001021CDE9040108206946C3E904024FF47F
:10399000C072181DC3E906C24FF48052C3E909E2A0
:1039A0000AF056FF38B92846FFF782FF003818BFE3
:1039B000012009B030BD204609B030BD90970024E9
:1039C00040410052614A0021D0B513688EB00A917F
:1039D000002B40F0B9805E4B01214FF683700C2420
:1039E00011600221D3F8D4200026032742F480522C
:1039F000C3F8D420D3F8D42002F480520092009A65
:103A0000D3F8E02042F01002C3F8E020D3F8E02021
:103A100002F010020192019AD3F8E02042F0400235
:103A2000C3F8E020D3F8E02002F040020292029AAC
:103A3000D3F8E02042F00802C3F8E020D3F8E020F9
:103A400002F008020392039AD3F8E02042F4807255
:103A5000C3F8E020D3F8E02002F480720492049AC4
:103A6000D3F8E02042F08002C3F8E020D3F8E02051
:103A700002F080020592059AD3F8E02042F020027D
:103A8000C3F8E020D3F8E02002F020020692069A64
:103A9000D3F8E02042F00402C3F8E020D3F8E0308D
:103AA0000C9403F0040307930323079A0B93CDE9C7
:103AB000080108A9274806F037F948F2371202230F
:103AC00008A925480C94CDE90823CDE90A6706F03A
:103AD0002BF94CF20372022308A920480C94CDE97B
:103AE0000823CDE90A6706F01FF940F2FF620223BE
:103AF00008A91B480C94CDE90823CDE90A6706F014
:103B000013F94FF60C72022308A916480C94CDE95C
:103B10000823CDE90A6706F007F94FF63F020223B2
:103B200008A911480C94CDE90823CDE90A6706F0ED
:103B3000FBF82022022308A90A480C94CDE90A6761
:103B4000CDE9082306F0F0F80EB0D0BD8C97002424
:103B5000004402580010025800180258000C025885
:103B600000200258001C0258001402582DE9F04FA2
:103B7000DFF8108406460D46144608F114002DEDBA
:103B8000028B89B000AF02F0B7FCD8F8143073B3E1
:103B9000D8F81830D8F80490002B43690BBF4FF0C9
:103BA000080A4FF0100A4FF0020B4FF0040BB9F166
:103BB000000F2AD0A200EA46012B02F1070222F0F0
:103BC0000702ADEB020D6846ADEB020D694600F051
:103BD0003F81022B00F0D680002B6FD02246C847D1
:103BE000D5462437BD46BDEC028BBDE8F08FD8F832
:103BF0001830002BF5D0D8F804904FF0080A4FF099
:103C0000020B4369B9F1000FD4D1FB61D8F8003041
:103C1000BB61002BE5D0D54802F0E0FC6B46BBF160
:103C2000020F786108EE103AFB6900F083816A4662
:103C30005146A2EBC40295466200EA46B2FBFBF293
:103C4000AAEBC40085460AEB8200EE46F861ADEBB4
:103C5000010DF8690EEB820CC7F810C0EC46ADEB15
:103C6000010D00EB8201CCF80400CCF8081001EB48
:103C700082013869E946CCF80C1000EB8201CCF8DF
:103C800000A001EB8202C9E900E0C9E90212012BA0
:103C900000F06483022B00F06C82002B00F0808126
:103CA000620849466046BB69984718EE103A2437C7
:103CB0009D46BD46BDEC028BBDE8F08F002C8DD03B
:103CC0001A46D8ED0B6A9FEDB27A8446331D36F959
:103CD00022E00CF1080C07EE90EA33F922E0023200
:103CE000F8EEE77A944267EE877A67EEA67A4CEDB3
:103CF000027A07EE90EAF8EEE77A67EE877A67EEE7
:103D0000A67A4CED017AE2D8F9612246C847984E6E
:103D1000D8ED046A0020F9692B1D9FED9E7A9FED76
:103D20009E6ADFED9E5A22E0F4EEC67AF1EE10FABA
:103D3000C0F2C88447F6FE72D1ED017A45F8202022
:103D400066EEA77AF4EEC77AF1EE10FA40F2F08050
:103D5000F4EEC67AF1EE10FAC0F2D58447F6FE72A0
:103D600043F820200230083184427FF639AFD1ED8C
:103D7000007A66EEA77AF4EEC77AF1EE10FAD3D89D
:103D80003246D9E7002C3FF429AFD8ED0B6A8446C0
:103D90009FED787A0022331D8E4656F822100CF1E2
:103DA000080C07EE901A53F822100232F8EEE77A68
:103DB000944267EE877A67EEA67A4CED027A07EEB8
:103DC000901AF8EEE77A67EE877A67EEA67A4CEDFE
:103DD000017AE2D871462246C7F81CE0C847664E11
:103DE000D8ED046A0020F9692B1D9FED6A7A9FEDDA
:103DF0006A6ADFF894C120E0F4EEC67AF1EE10FAB8
:103E0000C0F279843246D1ED017A45F8202066EE81
:103E1000A77AF4EEC77AF1EE10FA40F28780F4EE5A
:103E2000C67AF1EE10FAC0F25E84324643F82020E2
:103E30000230083184427FF6D3AED1ED007A66EECF
:103E4000A77AF4EEC77AF1EE10FAD5D86246DAE72F
:103E5000002C3FF4C3AED8ED0B6A86469FED477A3F
:103E60004FF0000C331D56F82C200EF1080E82F492
:103E70000002A2F5000207EE902A53F82C200CF164
:103E8000020CF8EEE77A82F400026445A2F5000223
:103E900067EE877A67EEA67A4EED027A07EE902AF1
:103EA000F8EEE77A67EE877A67EEA67A4EED017A4A
:103EB000D9D8F9612246C847314ED8ED046A0020AE
:103EC000F9692B1D9FED337A9FED336ADFF8BCC093
:103ED0001FE0F4EEC67AF1EE10FAC0F2FC8332462F
:103EE000D1ED017A45F8202066EEA77AF4EEC77A84
:103EF000F1EE10FA18D9F4EEC67AF1EE10FAC0F22B
:103F0000DA83324643F820200230083184427FF6BB
:103F100067AED1ED007A66EEA77AF4EEC77AF1EEDD
:103F200010FAD6D86246DBE76246EBE762467DE7E9
:103F3000324615E7A100D6466208073121F0070195
:103F4000ADEB010DEA46ADEB010D6946ADEB0E0D93
:103F50000AEB8200EC46ADEB0E0D01EB8202F8613C
:103F6000E946CCE900A0C9E9001290E6E0970024F8
:103F70000280FFFF000000300082FF7F000000345D
:103F800082FF7F00C8970024007E00807E0080FFB3
:103F90000000003804FF7FBF04FF7F3F00FEFF46A4
:103FA000002C00F0C982BBF1020FD8F8202000F0ED
:103FB000FA827969C7F8049002EB810E5FED0C5A22
:103FC0008A00DCF808100EF104007A611A46DCF869
:103FD0000C303B61331DD7F810903D61FD69C7E996
:103FE00002CB8C46834636F92210D8ED0B7A06EECA
:103FF000101A33F9221006EE901A3EF92210B8EE8C
:10400000C66A07EE101AF8EEE66A3BF92210B8EE1F
:10401000C77A26EE256A66EEA56A27EE257A26EE91
:10402000276A66EEA76A27EE277A07EE901A5108EC
:104030000232F8EEE77A0AEB8100944280ED006AE2
:1040400005EB810067EEA57AC0ED006A0CEB8100FC
:1040500009EB810180ED007A98ED0B7A67EE877AA3
:10406000C1ED007ABFD8D7F804903D69D7E902CBFB
:1040700060466208BB6949469847D8F828307A6993
:10408000D8ED046A1A441FED3D7A1FED3D6A2B1DE1
:10409000904602F1040A5FED3F5A0022A84ED9E98A
:1040A00000EC51E0F4EEC67AF1EE10FAC0F2C782ED
:1040B00047F6FE7045F822000CEB0100D0ED007AC7
:1040C00066EEA77AF4EEC77AF1EE10FA4BD9F4EE69
:1040D000C67AF1EE10FAC0F2BA8247F6FE70BBF172
:1040E000020F43F822002BD0D9F808000844D0ED85
:1040F000007A66EEA77AF4EEC77AF1EE10FA36D9B6
:10410000F4EEC67AF1EE10FAC0F2CD8247F6FE70F8
:1041100048F82200D9F80C000144D1ED007A66EE8F
:10412000A77AF4EEC77AF1EE10FA1ED9F4EEC67A49
:10413000F1EE10FAC0F2AF8247F6FE714AF8221093
:10414000023294427FF6B1AD51080EEB8100890036
:10415000D0ED007A66EEA77AF4EEC77AF1EE10FAA7
:10416000A0D83046A6E73046B9E73146E6E7304604
:10417000CEE7002C00F0E081BBF1020FD8F8203030
:1041800000F0E1817A69DCF8081003EB820EC7F8D1
:1041900004909300DFED6B5A0EF1040000227B6166
:1041A000DCF80C303B61331DD7F810903D61FD69A0
:1041B000C7E902CB8C46834656F82210D8ED0B7A1D
:1041C00007EE101A53F82210B8EEC76A07EE101A5D
:1041D0005EF82210F8EEC76A07EE101A26EE256A7E
:1041E0005BF82210B8EEC77A66EEA56A26EE276A5B
:1041F00027EE257A66EEA76A27EE277A07EE901A51
:1042000051080232F8EEE77A0AEB8100944280ED21
:10421000006A05EB810067EEA57AC0ED006A0CEB41
:10422000810009EB810180ED007A98ED0B7A67EE51
:10423000877AC1ED007ABFD8D7F804903D69D7E9F5
:1042400002CB60466208BB6949469847D8F82830D7
:104250007A69D8ED046A1A449FED3E7A9FED3E6A72
:10426000131D9246DFF8E4C00022FB612B1D364E81
:10427000D9E9008E4EE0F4EEC67AF1EE10FAC0F203
:10428000FC81304645F822000EEB0100D0ED007AAB
:1042900066EEA77AF4EEC77AF1EE10FA49D9F4EE99
:1042A000C67AF1EE10FAC0F2EF813046BBF1020F90
:1042B00043F822002AD0D9F808000844D0ED007A4B
:1042C00066EEA77AF4EEC77AF1EE10FA35D9F4EE7D
:1042D000C67AF1EE10FAC0F2C98130464AF82200DF
:1042E000D9F80C000144D1ED007A66EEA77AF4EE1D
:1042F000C77AF1EE10FA1ED9F4EEC67AF1EE10FA92
:10430000C0F2AD813146F86940F822100232944281
:104310007FF6CBAC510808EB81008900D0ED007A24
:1043200066EEA77AF4EEC77AF1EE10FAA3D86046EB
:10433000A8E76046BAE76146E5E76046CEE700BF1A
:104340000280FFFF000000300082FF7F007E0080BF
:104350000000003404FF7FBF04FF7F3F002C00F00B
:10436000EB807A690021D8F82030C7F8109003EB71
:10437000820ED7F81C909300FD610EF104021FED30
:104380000C6A7B61331D154656F821204808D8ED8C
:104390000B6ABBF1020F82F40002A2F5000207EEE5
:1043A000902A53F8212082F40002B8EEE77AA2F5B1
:1043B000000227EE067A07EE902A0AEB8002F8EE5A
:1043C000E77A27EE267A67EE867A82ED007A09EBA5
:1043D00080024FEA800067EEA67AC2ED007A27D00D
:1043E0005EF8212082F40002A2F5000207EE902A76
:1043F00055F8212082F40002B8EEE77AA2F5000217
:1044000027EE067A07EE902ADCF80820F8EEE77A25
:10441000024427EE267A67EE867A82ED007A98EDDE
:104420000B7ADCF80C2067EE877A0244C2ED007A42
:1044300002318C42A8D8D7F8109060466208BB6958
:104440004946FD699847D8F828307A69D8ED046A5A
:104450001A441FED407A1FED406A131D9246DFF8A3
:10446000C4C20022FB612B1DAB4ED9E9008E4EE089
:10447000F4EEC67AF1EE10FAC0F2C580304645F887
:1044800022000EEB0100D0ED007A66EEA77AF4EE82
:10449000C77AF1EE10FA49D9F4EEC67AF1EE10FAC5
:1044A000C0F2BF803046BBF1020F43F822002AD091
:1044B000D9F808000844D0ED007A66EEA77AF4EE49
:1044C000C77AF1EE10FA35D9F4EEC67AF1EE10FAA9
:1044D000C0F2AE8030464AF82200D9F80C00014400
:1044E000D1ED007A66EEA77AF4EEC77AF1EE10FA13
:1044F0001ED9F4EEC67AF1EE10FAC0F28B80314686
:10450000F86940F82210023294427FF6CEAB51088F
:1045100008EB81008900D0ED007A66EEA77AF4EE10
:10452000C77AF1EE10FAA3D86046A8E76046BAE76A
:104530006146E5E76046CEE7224649466046BB69EC
:104540009847FFF7B2BBC7F810B0002298ED0B6A8E
:10455000331DDFED726AD7F81CB0786956F8221067
:1045600007EE901A53F82210B8EEE77A07EE901A89
:1045700051080232F8EEE77A27EE267A0AEB810E2E
:1045800094420BEB810167EEA67A27EE067A67EE7E
:10459000867A8EED007AC1ED007ADFD88300D7F8F5
:1045A00010B07B614DE61A46C7F810B098ED0B6A63
:1045B000331DDFED5B6AD7F81CB0786936F922103D
:1045C00007EE101A33F9221007EE901AB8EEC77AE8
:1045D00051080232F8EEE77A27EE267A0AEB810ECE
:1045E00094420BEB810167EEA67A27EE067A67EE1E
:1045F000867A8EED007AC1ED007ADFD88300D7F895
:1046000010B07B6134E5F0EE675AFEEEE45A15EE29
:10461000900A34E7F0EE675AFEEEE45A15EE901A6F
:104620006EE7F0EE675AFEEEE45A15EE900A3AE7AE
:10463000F0EE675AFEEEE45A15EE900A4BE767EE8D
:10464000A57AFDEEE77A17EE900A00B232E567EE42
:10465000A57AFDEEE77A17EE900A00B23FE5F0EE9C
:10466000675AFEEEE05A15EE901A4CE6F0EE675AE5
:10467000FEEEE05A15EE900A30E6F0EE675AFEEED6
:10468000E05A15EE900AFDE5F0EE675AFEEEE05AAC
:1046900015EE900A0AE667EEA57AFDEEE77A17EEC8
:1046A000901A09B24AE567EEA57AFDEEE77A17EEB1
:1046B000900A00B22CE5F0EE675AFEEEE45A15EED1
:1046C000902A1FE467EEA57AFDEEE77A17EE902AAE
:1046D00012B2FFF731BBF0EE675AFEEEE45A15EE68
:1046E000902AFFF7FDBBF0EE675AFEEEE05A15EE9A
:1046F000902AFFF79BBBF0EE675AFEEEE05A15EEEC
:10470000902AFFF780BB67EEA57AFDEEE77A17EEF9
:10471000902A12B2FFF724BB82FF7F000000003016
:10472000000000387E0080FF30B5154C154685B07E
:10473000046004F1080C01AB07C98CE80700D4ED54
:10474000047AF5EEC07A83E80700F1EE10FA14DD82
:10475000F7EE006A86EEA77A84ED0B7A6DB12046FB
:1047600040F8145F01F0C8FE064903690020064ABC
:10477000E1616262E36005B030BD012005B030BD8B
:10478000C897002400200030000000300068083086
:10479000704700BF0068143001F00EBF30B50468E8
:1047A00083B00D46A3694BB1A3680020A26A216AB9
:1047B0009B00009004F1180001F0A0FEA3680748D8
:1047C000626A9B00E169009004F1140001F096FE1A
:1047D0000020C4E9005003B030BD00BF6D3B0008AD
:1047E000024B0022C3E90522704700BFC89700248E
:1047F000F6EE006A4FF0000C60EE207A0160B7EE32
:10480000007A0021C0F80CC067EEA67A80ED020A9B
:1048100080ED047AC0F814C0C7EE276A02764376AA
:104820008176C0ED070AC0ED016A70470268037E19
:10483000128807EE902AFBEEC87A1BB1B7EE007A19
:1048400077EE677AD0ED056A90ED047A77EEE67A36
:10485000437E67EE877A0BB1F1EE677A90ED030A3B
:1048600090ED017A77EEC07AA7EE270A80ED030A71
:10487000704700BF10B584B004460C30ADF80C1082
:10488000ADF8082082804FF48072A181ADF8043029
:10489000E281628200F004FD04F1100000F000FDEE
:1048A0009FED060A0199204600F03AF800224FF6E3
:1048B000FF73A261A38204B010BD00BF000000001E
:1048C00070B5067D04460C30760000F0C5FD657DB0
:1048D000034676B26D0004F110001E436DB22675DA
:1048E00000F0BAFD05432046657500F02DF8237DE4
:1048F000002203F00303A261022B06D0627D02F0C6
:104900000302022A00D133B170BD637D9B07FBD146
:104910000123A36170BD4FF0FF33A36170BD00BFE1
:10492000012282B00346C1F3072CADF80410417098
:1049300000210270104483F802C09A80D9709A71E5
:1049400002B000F0ADBC00BF38B5447905468379AC
:104950000130640064B253B100F07EFDB0FA80F320
:104960005B092343DBB27F2B6B7108D038BD00F0AD
:1049700073FD43B22343DBB27F2B6B71F6D102F0A0
:1049800013FE07EE900AF8EE677AC5ED027A38BD9D
:1049900082B04FF0000C0323ADF80410BDF80420E2
:1049A00080F810C00280438002B070472DE9F04FBC
:1049B000BE4E00258FB0BE4C037006F1400342602E
:1049C000074601928846202229463046C4F85831CD
:1049D000C4F85461CDE90355CDE90555CDE9075536
:1049E000CDE90955CDE90B550FF06EFA2022294685
:1049F00004F59970C4F82151C4F82551C4F829511F
:104A0000C4F82D510FF060FA019B84F8385284F8F5
:104A100020317A68002A5FD02B464146B64604F51D
:104A2000907599464FF0010A03EB0310D1F800B0DE
:104A3000D1F804800133D1F808C02218CE6844F8B8
:104A400000B0C2F80480C2F808C0D660087C2EF816
:104A5000029B10740A7C05F8012F002A69D07A683D
:104A6000113184F838A29A42DED84FF4802291485E
:104A70009DF8043008214FF000084FF00009C4F8F9
:104A800074310023C4E957020122C4F8643184F868
:104A90007031C4E95A2194F83812C4E9608981B3AD
:104AA000C4F88821002284F8713184F878313B7889
:104AB000C4E96322A3B3012200200121013B84F851
:104AC0009421C4E96801082B2CD8DFE803F0ABB0CF
:104AD000B5BABFC4C9CFD6009DF804300121C4F8CF
:104AE0006421C4F874314FF4802384F87021714A32
:104AF000C4E9572308230022C4E95A130023C4E958
:104B000060230123002284F87131002384F8783176
:104B10000323C4F888313B78C4E96322002BCAD14F
:104B200084F89431644803F085FD034638B1FFBE34
:104B3000FEE77A6811319A423FF676AF95E703A90E
:104B40005D48039303F0D4FE0546002868D1022295
:104B500040F2FF73CDE9082300230422CDE90A23A4
:104B600094F82031002B00F0D5804FF0060921E0A9
:104B7000022B00F08980012B40F0C4809AF80130AC
:104B8000012B00F0C180002B4C4B18BF002306A95D
:104B90004948CDE9063903F079F9002840F0BF8093
:104BA000013594F82031EDB2AB4240F2B380444B72
:104BB00053F825902FB207EB071704EB070A50466E
:104BC00000F06EFB05EB051323441B7C042B7DDCFE
:104BD000022B00F3918000F08D806319002283F88E
:104BE0001021E35D002BC3D19AF80130062B00F0B1
:104BF0008580072B00F08A80022B00F09680032B23
:104C000000F09580002B00F09680012B00F0918041
:104C1000042B00F09280052B2A4B18BF0023B6E727
:104C2000FFBEFEE703224023C4E966237AE707229A
:104C30006023C4E9662375E70F228023C4E9662355
:104C400070E71F22A023C4E966236BE73F22C0233D
:104C5000C4E9662366E77F22E023C4E9662361E7AF
:104C6000FF224FF48073C4E966235BE740F2FF1232
:104C70004FF49073C4E9662354E740F2FF324FF4D7
:104C8000A073C4E966234DE79AF80130042B37D0AE
:104C9000052B3DD0002B40D0012B42D0022B42D01F
:104CA000032B094B18BF002371E700BF0040003001
:104CB000F897002400200240549900240002B025F7
:104CC000BC6D01080000B84F0020903603233E1D44
:104CD00004EB05084FF0000B264488F810313046ED
:104CE0000BF1010B00F0DCFA98F8103104365B454B
:104CF000F5DC76E70123EAE70223E8E7104B46E715
:104D0000104B44E7002342E70F4B40E70F4B3EE7D1
:104D10000F4B3CE70FB0BDE8F08F0E4B37E7FFBEFF
:104D2000FEE70D4B33E70D4B31E70D4B2FE70D4BF6
:104D30002DE70D4B2BE70D4B29E70D4B27E700BF68
:104D40000800900C1000C0102000F0148000501DCE
:104D5000000180210004002A0008302E001060327B
:104D60000040C03A0080F03E00005247000021435E
:104D70000000844B38B5094C40F2FF724FF001112E
:104D800004F5AE75284603F061FD94F82021D4F8AF
:104D900054112846BDE8384003F0CCBAF8970024F7
:104DA000034B0F29D3F8540198BF00EB4100704723
:104DB000F8970024214B02689A4200D07047204A9D
:104DC00000232048D2F8D81030B51F4C41F0200104
:104DD00083B0C4F8C001092004F5E075C4E971038B
:104DE0004FF48060C2F8D810D2F8D8204FF4006198
:104DF000C4E9733094F8380202F02002C4F8D411E8
:104E00004FF40051984201922846C4F8D811C4E9E1
:104E10007833019B14BF00234FF48073C4F8DC3156
:104E200004F0B8F808B1FFBEFEE704F5AE73C4F8AD
:104E3000A851C4F8F83103B030BD00BF00200240D3
:104E40000044025840000240F8970024014804F052
:104E500019BC00BFB899002402682DE9F84F4B4BEC
:104E60009A4201D0BDE8F88F494D95F83832002BB1
:104E7000F8D095F82031002B77D0002405F10C09EB
:104E800005F5997605F59077A04613E003F001014A
:104E900017F811BCA9F1080000F0ECFABBF1010F02
:104EA00025D895F82031013409F111090236A2B252
:104EB00093422BD917F8012F002AF4D0D5F854319A
:104EC0000021327833F81400D5F8583103EB04137D
:104ED00023F81200338801339BB233805FFA83FAE0
:104EE0003A789A42D2D88A46A6F80080D0E7CAF328
:104EF0004001A9F1040000F0BDFABBF1020FCAF3B2
:104F00008001CED0484600F0B5FACAE7002395F8F4
:104F10003802204909229842C5F8C8314FF4806010
:104F2000C5F8C011C5F8C4214FF400614FF4005218
:104F3000C5F8CC3108BF4FF48073C5F8D821C5E956
:104F4000740100221448C5E97732C5F8E42104F061
:104F500021F808B1FFBEFEE795F82021D5F85411DD
:104F60000E48BDE8F84F03F0E5B90A4909224FF4AD
:104F70008060C5F8C831C5E970124FF400614FF484
:104F80000052C5E97330C5E97512DAE70020024026
:104F9000F897002440000240B89900245499002456
:104FA000704700BF4F4B02689A4200D070474E4B8B
:104FB000D3F8E81030B541F000514C4C85B0D4F82E
:104FC0004821C3F8E810D3F8E81001F0005101912E
:104FD0000199D3F8E01041F00101C3F8E010D3F8D3
:104FE000E03003F001030293029B32F002033DD054
:104FF000013A012A6BD9D4F84C31012B0AD0002296
:105000003620114603F0E8FC362005B0BDE83040FC
:1050100003F020BDD4F8483133F0020234D0013B14
:10502000012BECD8442240233149324DC4F88C1076
:1050300000212846C4F8B010C4E9242300224FF40C
:105040008063C4E926234FF400624FF40053C4E99F
:1050500028234FF480724FF48033C4E92A2303F0ED
:1050600099FF80B9E560C4F8C440C8E74FF4806296
:10507000032303A8ADF80C208DF80E3000F010F9D2
:10508000D4F84821B4E7FEE71B4BA26343226361D7
:1050900040231A4DC4E9062300224FF480632846BA
:1050A000C4E908234FF400624FF40053C4E90A2313
:1050B0004FF480724FF48033C4E90C2303F06AFF8D
:1050C00020B9D4F84831A560E464A8E7FEE74FF4BE
:1050D000A062032303A8ADF80C208DF80E3000F079
:1050E000DFF888E70074004000440258389A002432
:1050F00028040240C49A0024100402404C9A002460
:10510000014804F0BFBA00BF4C9A0024014804F0E3
:10511000B9BA00BFC49A002410B5054C204603F06C
:1051200085FD04F58270BDE8104009F075BD00BF33
:10513000389A002430B58C463A4C3B4D8DB0046013
:1051400004F5A27EBCE80F00AEE80F00DCF80030EA
:1051500020462560CEF8003003F00AFD0023D4F885
:105160004C510393C5B11622012D049217D0002291
:10517000D4F85411D4F848319142CDE9062218BF31
:105180000222059233F0020235D0013B012B3CD9BB
:10519000002528460DB030BD02230493E7E7234ADB
:1051A0000093C4F80C31C4F81431C4F80421C4F8D5
:1051B0001C31CDE9013302F05DFBD4F844314BF6EC
:1051C0008032C4F80851002B08BF1346B0FBF3F33C
:1051D00004F58270C4F8103109F09CFB0028D8D186
:1051E00020230290694604F58270009309F0CCFDFB
:1051F0000028BCD0CDE703A90A4803F04BFD78B9DD
:10520000D4F84831013B012BC2D8102203A905482C
:1052100003F040FD051E18BF012528460DB030BD26
:105220000125B6E7389A00240074004000100040C1
:105230002DE9F0410668D6F84C5105BBD6F850313F
:105240000C461746002B0CBF4FF008084FF0000823
:1052500031F0020305D0013C012C14D92846BDE8E9
:10526000F0811346294642463046013C03F0C4FC17
:105270002946304603F092FC012CEFD803E00125CB
:105280002846BDE8F0813B4642461021304603F0F7
:10529000B3FC1021304603F081FC2846BDE8F081C4
:1052A0008378022B30B504468FB037D0032B33D030
:1052B000012B31D000230A93E378012B2AD0022B53
:1052C00028D000230B93002320460C9302F058FCB7
:1052D0000546204602F05CFC23780990082B13D881
:1052E000DFE803F01F3245586B7E91A40500594B4F
:1052F000D3F8E02042F48072C3F8E020D3F8E03025
:1053000003F480730893089B09A9284604F00CFD58
:105310000FB030BD0B93D6E70A93CDE711230A9364
:10532000CAE74C4B09A92846D3F8E02042F0010215
:10533000C3F8E020D3F8E03003F001030093009BB2
:1053400004F0F2FC0FB030BD424B09A92846D3F857
:10535000E02042F00202C3F8E020D3F8E03003F08E
:1053600002030193019B04F0DFFC0FB030BD394B09
:1053700009A92846D3F8E02042F00402C3F8E0204F
:10538000D3F8E03003F004030293029B04F0CCFC5A
:105390000FB030BD2F4B09A92846D3F8E02042F0CA
:1053A0000802C3F8E020D3F8E03003F008030393C9
:1053B000039B04F0B9FC0FB030BD264B09A9284669
:1053C000D3F8E02042F01002C3F8E020D3F8E03038
:1053D00003F010030493049B04F0A6FC0FB030BD4F
:1053E0001C4B09A92846D3F8E02042F02002C3F85C
:1053F000E020D3F8E03003F020030593059B04F090
:1054000093FC0FB030BD134B09A92846D3F8E02018
:1054100042F04002C3F8E020D3F8E03003F040034C
:105420000693069B04F080FC0FB030BD094B09A920
:105430002846D3F8E02042F08002C3F8E020D3F8F9
:10544000E03003F080030793079B04F06DFC0FB07E
:1054500030BD00BF0044025838B5054602F090FB4D
:105460000446284602F094FB01462046BDE8384039
:1054700004F062BE70B506460D4602F081FB04469C
:10548000304602F085FB2A1E0146204618BF012245
:10549000BDE8704004F056BE0023122270B586B0FD
:1054A000CDE9022304930368032B01D80423059359
:1054B000061D841D304602F063FB0546304602F0AF
:1054C00067FB034601A92846019304F02DFC204602
:1054D00002F056FB034620461C4602F059FB01A988
:1054E00003462046019304F01FFC06B070BD00BFC8
:1054F000634A0368934210B58CB028D0614A934246
:1055000058D0614A934200F09480604A934201D09F
:105510000CB010BD5E4C5F48D4F8E03043F002039D
:10552000C4F8E030D4F8E03003F002030A930A9B99
:10553000FFF7B2FFD4F8F43043F08003C4F8F4303E
:10554000D4F8F43003F080030B930B9BE0E7504C4E
:105550005148D4F8E03043F00203C4F8E030D4F806
:10556000E03003F002030193019BFFF795FFD4F8AD
:10557000E83000221F2043F400131146C4F8E8303D
:10558000D4F8E83003F400130293029BD4F8D83027
:1055900043F00103C4F8D830D4F8D83003F0010345
:1055A0000393039B03F018FA1F200CB0BDE81040D2
:1055B00003F050BA364C3948D4F8E03043F0800359
:1055C000C4F8E030D4F8E03003F080030493049B87
:1055D000D4F8E03043F00203C4F8E030D4F8E0300F
:1055E00003F002030593059BFFF756FFD4F8E8305C
:1055F0000022212043F480031146C4F8E830D4F897
:10560000E83003F480030693069BD4F8D83043F0C7
:105610000103C4F8D830D4F8D83003F0010307935D
:10562000079B03F0D9F921200CB0BDE8104003F02E
:1056300011BA1B48FFF730FF154B00224820D3F862
:10564000E840114644F40004C3F8E840D3F8E840C9
:1056500004F400040894089CD3F8D84044F00104F2
:10566000C3F8D840D3F8D83003F001030993099B5D
:1056700003F0B2F948200CB0BDE8104003F0EAB9DD
:105680000054004000580040005C0040001C0058DE
:10569000004402582C9E0024A49B00247C9C0024DF
:1056A000549D00242DE9F0431A4B87B000254FF09C
:1056B00010099E46EC46184BFF22E04667461A70DA
:1056C0000EF118060EF13004CDE90055CDE9025572
:1056D000ADF80090BCE80F00CDE90455AEE80F002E
:1056E0009CE803000095ADF800908EE80300B8E850
:1056F0000F000FC69CE803000095ADF8009086E807
:1057000003000FCF0FC49CE8030084E8030007B038
:10571000BDE8F0830C000024A09B002410B5EFF33B
:10572000108472B6084B1A78120602D504B962B614
:1057300010BD1B78D82205485BB202FB0300143071
:1057400003F0A0FFF2E700BFA09B0024A49B00246D
:10575000014805F08FBB00BF309C0024014805F0D4
:1057600089BB00BF089D0024014805F083BB00BF32
:10577000E09D00242DE9F0430F68D8243F4D85B00B
:1057800007FB04F4032F05EB0403036040DCCB6844
:105790000E46012B3CD84DD04FF0D808B646DFF866
:1057A000FC9008FB0758BEE80F00C446ACE80F00A9
:1057B000DEF800300DF1100ECCF80030D8F808C03B
:1057C00099E80F000EE90F000EEB8703BCF1010F03
:1057D00053F8103CC8F88C3031D0BCF1020F42D0E5
:1057E000BCF1000F35D0317C8C34D823002201204D
:1057F0002C4403FB07534900C3E92602C3F8941065
:105800002046C3E92822C3E92A2205F025F918B168
:10581000012005B0BDE8F0830146204605F036FBC7
:105820000028F5D10146204605F05AFB003818BF84
:105830000120EEE70B7C103B672BADD9E8E702F0C7
:1058400017F80F4B98420CBF0E4B0F4BC8F8903017
:10585000C9E702F00DF80A4B98420CBF0B4B0C4BFA
:10586000C8F89030BFE702F003F8054B98420CBF30
:10587000084B094BC8F89030B5E700BFA49B002443
:10588000000E27072D0FB0303211D0205F439060FB
:105890008A62E030200BA0101A098010C06B01084A
:1058A0002DE9F041D0F8008082B00D4617461E4623
:1058B00008F18C04204605F0E5FA2028FAD1D8F842
:1058C0000C3073B96D002046089C33463A46A9B2A5
:1058D000009405F017F9003818BF012002B0BDE8A8
:1058E000F081089B32463946204605F0DFF9F2E7A1
:1058F000044B10221A7483F8E82083F8C02183F83F
:1059000098227047A49B002430B5002395B04FF433
:105910008071062204460B9306921393CDE90C1373
:10592000CDE90E33CDE9113301F0A6FF07282BD0C6
:1059300004F1100541F2883206A9284606F0E2F883
:1059400028B10123184684F85C3015B030BD02221E
:10595000022306A92846CDE9002310220123CDE920
:10596000022300224FF48003CDE9042305224FF0E7
:10597000807306926A460F9341F2883306F02EFA3E
:105980000028DED115B030BD0323012084F85C303F
:1059900015B030BD0000000070B50023A4B04FF07A
:1059A00080724FF480750446ADF806300D93CDE952
:1059B00010320122CDE90E53CDE91223CDE9143383
:1059C000002943D0F02300F1100508AEADF80630F1
:1059D000C02341F2883231462846089306F092F8F7
:1059E00028B10123184684F85C3024B070BD41F220
:1059F00088320DF10601284606F0EEF8034600282D
:105A0000EFD105224FF480711E93284616924FF075
:105A100080721B9321931F9202AA9FED1F7BCDE9F9
:105A20001C13CDE922338DED027B9FED1D7B41F2EE
:105A3000883316A98DED047B9FED1B7B8DED067BD6
:105A400006F0CCF90028CCD124B070BD00F11005CF
:105A500008AE612341F2883231462846089306F0A9
:105A600051F80028BDD141F288320DF106012846D7
:105A700006F030F90028B4D1BDF80630204623F0F6
:105A8000780343F04003ADF80630FFF73DFF0028F0
:105A90009ED0A6E7AFF300800000000001000000E8
:105AA00010000000010000000000000000004000A5
:105AB0002DE9F04F00234FF4807501264FF08078D8
:105AC00004462DED028BABB08DF807301393219374
:105AD000299314950E96CDF85C80CDE91533CDE968
